:400000000040002011000000C50A0000C50A000080B500AF00F08AFD80B500AF2E4B12221A6001F015FE2D4B180001F041FE012001F01EFE302001F0E1FC294B294A1A60DA
:40004000294B8022D2051A60284B284A126802210A431A60264B274A1A60274B00221A60264B264A126808218A431A60FA23DB00180001F011FD224B180001F089FD214B24
:40008000802292001A60204B204A1A60204BA022D2001A601C4B1F4A1A601F4B882292011A60194B1D4A1A601D4B802212061A601C4B8022D2021A601B4B40221A601B4B7F
:4000C00041221A601A4B42221A60074B8022D2051A60C046BD4680BD30001040001BB70004010B40060000800C020B4078002E407C002E402D3E000064F02E406CF02E400D
:40010000DC050000000301400000014040FF00800403014041FF00800803014042FF008008010B4000010B401C010140080101400401014080B582B000AF72B6374B002215
:400140001A60FB1D00221A7022E0FB1D1A7813005B009B185B00324A9B183B603B681A78597809020A43997809040A43DB781B06134318003B681A795B791B0213439BB2DA
:40018000190000F07BFCFB1D1A78FB1D01321A70FB1D1B78012BD8D9224B234A1A60234B992212041A60224B992212041A60214B992212041A60204B992212041A601F4B1C
:4001C000992212041A601E4A1D4B1B78DBB206210B43DBB213701B4B19221A601A4B1B4A1A601B4B09221A601A4B20221A601A4BC42292021A60194B20221A60184BC022F6
:4002000052031A60174BD82212041A60FFF704FF00F044FCC046BD4602B080BD6CF02E40C453010000000240FFF000EE0001024000500F4010500F4020500F4030500F40C2
:4002400000700F4000000440080004400E6CD80018000440000104400801044018010440080204400803044010B5064C2378002B07D1054B002B02D0044800E000BF0123E4
:40028000237010BD6814002000000000A4480100084B10B5002B03D00749084800E000BF07480368002B00D110BD064B002BFBD09847F9E7000000006C140020A4480100EA
:4002C000E00E00200000000080B500AF00F084F962B6064B0C21180000F0F0F8044B180000F01AFF03F006F9FCE7C046A8480100C107000080B582B000AF0200FB1D1A705B
:40030000BB1D0A1C1A70FB1D1B780F221340180000F0CAFCBB1D1B78180000F0C5FCC046BD4602B080BDC04690B585B000AF040008001100FB1D221C1A70BB1D021C1A7060
:400340007B1D0A1C1A700F23FB1800221A70002000F046FD962001F01BFC0F23FB1800221A701DE0FA1D0F23FB1812781B789A420AD1BB1D1B780133DAB27B1D1B781900A6
:400380001000FFF7B7FF04E0002300211800FFF7B1FF0F23FB181A780F23FB1801321A700F23FB181B78012BDCD9962001F0F0FB012000F015FD962001F0EAFBC046BD46BF
:4003C00005B090BD90B583B000AFBB1D0F221A800DE0BB1D1B88BA1D1288013A3349895C324AD154BB1D1A88BB1D013A1A80BB1D1B88002BEDD12E4B1B88DB089BB21A002A
:400400002C4B9B5C1A002A4B1B88190007230B402949D2008A18D25C244B1A70BB1D00221A8021E0BB1D1B88DB089BB2DAB27B1D01218A1A1A70BB1D1B88DBB2DB43DAB21B
:400440003B1D07210A401A70BB1D1B88174AD25C3B1D19787B1D1B781800FFF765FFBB1D1A88BB1D01321A80BB1D1B880F2BD9D90F4B1B881C000F4B180002F0B8F80300E2
:400480000233DB009C4206D2094B1B8801339AB2074B1A8002E0064B00221A80012000F05FFDC046BD4603B090BDC0463C1500208414002088140020B848010080B584B059
:4004C00000AF78600A00FB1C1A7000F06FFD144B00221A80FB1C1A787968124B180002F06FF80F23FB18FA1C12781A700CE00F23FB181B780B4A0021D1540F23FB181A7856
:400500000F23FB1801321A700F23FB181B78B32BEDD9FF2000F032FDC046BD4604B080BD841400208814002080B584B000AF0200FB1D1A700F23FB1800221A70002000F0D4
:400540004FFC962001F024FB0F23FB1800221A700FE00A20FB1D1B780F221340DBB21900FFF7C8FE0F23FB181A780F23FB1801321A700F23FB181B78012BEAD9962001F088
:4005800007FB012000F02CFC962001F001FBC046BD4604B080BDC04680B582B000AF0200FB1D1A7000F002FDFB1D1B78C921180001F044FE0B00DBB29BB2FE22D31A9BB295
:4005C0000021180000F004FDFF2000F0D7FCC046BD4602B080BDC04680B582B000AFBB1D00221A70012000F0FBFB00F03DFBC820FFF7D2FF00F056FC704B180000F00CFD6B
:40060000002000F0EDFB962001F0C2FABB1D00221A7009E00B2307211800FFF76BFEBB1D1A78BB1D01321A70BB1D1B78012BF1D9962001F0ADFA012000F0D2FB962001F0F2
:40064000A7FA002000F0CCFB962001F0A1FABB1D00221A7009E0092300211800FFF74AFEBB1D1A78BB1D01321A70BB1D1B78012BF1D9962001F08CFA012000F0B1FB9620B0
:4006800001F086FA002000F0ABFB962001F080FABB1D00221A7009E00F2300211800FFF729FEBB1D1A78BB1D01321A70BB1D1B78012BF1D9962001F06BFA012000F090FBF5
:4006C000962001F065FAFB1D00221A7028E0002000F086FB962001F05BFABB1D00221A700CE0FB1D1B780133DBB200211800FFF701FEBB1D1A78BB1D01321A70BB1D1B7827
:40070000012BEED9962001F043FA012000F068FB962001F03DFAFB1D1A78FB1D01321A70FB1D1B78072BD2D9002000F059FB962001F02EFABB1D00221A7009E00A2300219B
:400740001800FFF7D7FDBB1D1A78BB1D01321A70BB1D1B78012BF1D9962001F019FA012000F03EFB962001F013FA002000F038FB962001F00DFABB1D00221A7009E00C23F2
:4007800001211800FFF7B6FDBB1D1A78BB1D01321A70BB1D1B78012BF1D9962001F0F8F9012000F01DFB962001F0F2F9642001F0C9F9C046BD4602B080BDC046C5030000A6
:4007C00090B585B000AF786039600E23FB1800221A807B684C2B00D9FBE07B689A007F4BD3181B689F467E4B180001F0DFFE002000F026FD031E08D00E23FB181A88794B32
:400800001100180001F056FEE4E0774B180001F0CDFEDFE0754B180001F0C8FEDAE0744B180001F0C3FE734B1B78032B26D0002001F070F8012001F095F8012001F0BAF80E
:400840006D4B180001F0B2FE0E23FC18012000F0F7FC030023800E23FB181B88002B08D00E23FB181A88654B1100180001F022FEB0E0634B180001F099FEABE0012001F0E3
:4008800049F8002001F06EF8012001F093F85D4B180001F08BFE9DE0012001F03BF8012001F060F8002001F085F8574B180001F07DFE564B1A785B781B021A430023120410
:4008C000120C1B0C1B041343B72118000DF0AEFE00F0ACF87EE0002001F01CF8012001F041F8012001F066F8414B180001F05EFE474B180001F05AFE464B00221A700E2381
:40090000FC18002000F09CFC030023800E23FB181B88002B08D00E23FB181A883E4B1100180001F0C7FD55E03C4B180001F03EFE50E0384A3B681000190002231A0001F06F
:40094000A8FD374B01221A7044E0354B00221A7040E0344B180001F029FE334B3A681A60314B1B689B890E2B0AD12F4B1B685A682D4B1B681B89DBB219001000FFF79EFD0E
:40098000294B1B689B89122B06D1274B1B685B681B781800FFF7C8FD234B1B689B89102B06D1214B1B685B681B781800FFF7F4FD00F03CF8174B1A785B781B021A430023F7
:4009C0001204120C1B0C1B04134318000EF0C6F900E0C046C046BD4605B090BD90520100C8500100E4500100145101002C51010044510100C226002048510100645101005E
:400A000098510100CC510100E8510100C8260020FC510100B42600201452010044520100B026002078520100B826002080B584B000AF3B1D0E221A813B1D0E4A1A600D4BA4
:400A4000180001F0D4FD03009AB23B1D9A80094B180001F0CCFD03009AB23B1DDA80064A381D002300210FF081FBC046BD4604B080BDC04688140020B426002080B582B033
:400A800000AF786039603A687B680021180001F009FDC046BD4602B080BDC04680B500AF054B03221A60054B03221A60044B00221A60C046BD4680BD30003040300031402F
:400AC000000E3F4080B500AF01F0A8FC03001B680C2B00D1FEE7FEE780B584B000AF7860104B1A687B68D3181A000F4BD21A9023DB009A4209DC0B4B1B68FB60094B1A6844
:400B00007B68D218074B1A6007E001F087FC03000C221A6001235B42FB60FB681800BD4604B080BDE40E0020D026002080B586B000AF224B7B61224B3B61204B7B6135E09B
:400B40003B691B68FB603B695B68BB603B699B683B6000237B600CE0FB681A68BB681A60BB680433BB60FB680433FB607B6804337B607A683B689A42EED13B69DB683B60C2
:400B800000237B6008E0BB6800221A60BB680433BB607B6804337B607A683B689A42F2D13B6910333B617B69013B7B617B69002BC6D101F039FCFFF787FBFEE70100000059
:400BC0005458010080B582B000AF154B144A126801218A431A6000237B600FE07B68032B04D8104B7A689200D35800E00E4B0F4A796889008B507B6801337B607B682F2BB7
:400C0000ECD9FFF797FA0A4B00221A60044B044A126801210A431A60C046BD4602B080BD0000104000000000C50A000000000020C000002080B500AF00F04CF8C046BD463F
:400C400080BDC04680B500AF064B064A1268802109060A431A6000F019F800F01DF8C046BD4680BD0000254080B500AF064B1B78002B04D1FFF7DEFF034B01221A70FFF77E
:400C8000E1FFC046BD4680BD4C15002080B500AFC046BD4680BDC04680B500AF00F06CF8C046BD4680BDC04680B582B000AF7860C046064B1B681F221340082BF9D0044B32
:400CC0007A681A60C046BD4602B080BD080225404002254080B500AF174B184A1A60184B184A1A60184B194A1A60194B07221A60184B164A1A60184B00221A60174B002222
:400D00001A60174B00221A60164B00221A60164B00221A60154B00221A60154B00221A60134B1B689AB2134B1A80002000F03AF8C046BD4680BDC046000025400F00000121
:400D400020002540010000800003254007010080040325400002254004022540880E2540C80E2540480F2540080F2540C80F2540880F25404E15002080B500AF064B064A91
:400D80001268F02109020A431A60044B044A12881A60C046BD4680BD00000240880F25404E15002080B584B000AF78600A4B1B68FB60FB68094A1340FB607B689A06C02331
:400DC0001B051340FA681343FB60034BFA681A60C046BD4604B080BD20002540FFFFFFF380B584B000AF0200FB1D1A700F4B1B68DAB20F23FB1810218A431A70FB1D1B7837
:400E00001B01DBB210221340D9B20F23FB180F22BA1812780A431A70044B0F22BA1812781A60C046BD4604B080BDC0460000044080B500AF094B802292041A60084B0C224B
:400E40001A60012000F07EF8064B180000F04CF8002000F039F8C046BD4680BD0001204024012040FFF9000090B583B000AFFC1D00F027FF03002370094B094A1268012140
:400E80000A431A60FB1D1B78180000F01EFF1821012000F039F8C046BD4603B090BDC0460000204080B500AF064B1B78002B04D1FFF7BEFF034B01221A70FFF7D5FFC0466B
:400EC000BD4680BD5015002080B582B000AF7860044B7A681204120C1A60C046BD4602B080BDC0460801204080B582B000AF7860044B7A681204120C1A60C046BD4602B071
:400F000080BDC0461401204090B585B000AF786039600F23FC1800F0D4FE03002370084B79683A6891400A001A600F23FB181B78180000F0CAFEC046BD4605B090BDC046DD
:400F40000800204080B582B000AF7860034B7A681A60C046BD4602B080BDC0463801204080B582B000AF7860034B7A681A60C046BD4602B080BDC0463001204080B582B04C
:400F800000AF7860C046074B1B68002BFBDB054B7A68120204490A431A60C046BD4602B080BDC046000001404000008080B500AFC046054B1B68002BFBDB034B034A1A60A2
:400FC000C046BD4680BDC046000001404000004080B584B000AF0200BB1D1A807B1D0A1C1A700C4B1B6807221340FB60BB1D1B881A02FB681A437B1D1B78DB00FF210B4097
:401000001343BB60034BBA681A60C046BD4604B080BDC0460003014080B582B000AF786000F050F87B68180000F00AF8032000F015F800F03BF8C046BD4602B080BDC046BD
:4010400080B582B000AF7860034B84217A685A50C046BD4602B080BD0000002090B585B000AF0200FB1D1A700E23FB600B23FC1800F027FE030023700A4B0A4A12680A492F
:401080001140FA1D1078FA68904002000A431A600B23FB181B78180000F017FEC046BD4605B090BD10E400E0FF3FFFFF80B500AF034B802292021A60C046BD4680BDC0460B
:4010C00000E100E080B500AF034B802292021A60C046BD4680BDC04680E100E080B500AF064B00221A70064B00221A70054B00221A7000F009F8C046BD4680BDCB2600209E
:40110000C4260020CA26002080B500AF00F0FCFBC046BD4680BDC046B0B594B004AF78603E23FB1800221A802823FA183D4B1000190014231A0001F0ACF93B4B1B78002BE1
:4011400004D1FFF7CBFF384B01221A707B68002B5CD0364B7A681A603E23FB181B88002B29D11023FB181C22BA185A601023FB182022BA181A601023FB1800221A8120232D
:40118000FB181B221A802023FB181B225A802023FB1804221A711C23FB1800221A703E23FC180E23FA181023FB181100180002F07DFA030023803E23FB181B88002B29D161
:4011C0003E23FC182823FD18CC231A01184919480023029300230193052300932B0002F0BBF9030023803E23FB181B88002B11D1114B01221A703E23FC18104BB4221221A7
:4012000018000EF09BFF0300238003E03E23FB1801221A803E23FB181B881800BD4610B0B0BDC046D053010051150020BC260020C800002089150000C22600202C54010024
:4012400090B585B000AF0200FB1D1A70FB1D1B78022B04D90E23FB1801221A804AE0294B1B78042B41D1284B1B78DBB21A00042313403AD1FB1D1B78002B0BD1234B1E22E7
:401280001A82224B5B6820221A80204B5B6830225A8010E0FB1D1B78012B0CD11B4B96221A821A4B5B68C822D2001A80174B5B68FA2252015A80164BFA1D12781A700E2325
:4012C000FC18124B18000CF06DFB030023800E23FB181B88002B0DD10B4B1B78DBB204221343DAB2084B1A7004E00E23FB180422FF321A800E23FB181B881800BD4605B040
:4013000090BDC046C2260020CB260020380F0020CA26002080B584B000AF78600A00FB1C1A700023BB60FB1C1B78002B01D0154BBB60BB68002B20D07B689A79BB681A70EF
:401340000F23FB1800221A7012E00F23FB181B780133BA68D3180F22BA18127879688A5C1A700F23FB181A780F23FB1801321A700F23FB181B78052BE7D9C046BD4604B035
:4013800080BDC0461A0F002080B582B000AF78607B681B789AB27B6801331B789BB21B029BB213439BB21800BD4602B080BDC04690B585B000AF78600F23FB1800221A70EB
:4013C0007B689B890B22934232D17B68181D7A680F23FC18402300210EF0C8FE030023700F23FB181B78002B1AD17B685B681800FFF7CAFF03001A00022313409BB2002B4B
:4014000007D00F4B1B687968822252001000984706E00B4B1B6879680622FF3210009847084B1B78DBB201229343DAB2054B1A700F23FB181B781800BD4605B090BDC0467D
:40144000BC260020CB26002090B585B000AF78600F23FC187B681800FFF7AAFF03002370154B1B78DBB21A00012313401FD10F23FB181B78002B16D00823FB1812229A707C
:401480007B689A890823FB181A800823FB180F22BA181278DA700823FA187B68110018680DF0E4FB03E07B6818680DF057FCC046BD4605B090BDC046CB26002080B582B08D
:4014C00000AF7860C046BD4602B080BD80B500AF044B00225A70034B00221A70C046BD4680BDC046C826002080B582B000AF7860C046BD4602B080BD80B500AFC046BD4627
:4015000080BDC04680B584B000AF78600E23FB1800221A707B689B79002B1CD10F23FB1800221A7012E00F23FB181B787A68D35C002B04D00E23FB1801221A700BE00F23A0
:40154000FB181A780F23FB1801321A700F23FB181B78052BE7D90E23FB181B781800BD4604B080BD80B582B000AF0200BB1D1A80C046BD4602B080BD80B582B000AF7860A9
:40158000C046BD4602B080BD80B588B000AF02003960FB1D1A70CD4B1B78DBB201221343DAB2CA4B1A70FB1D1B78712B00D96BE19A00C74BD3181B689F461023FB18072224
:4015C0001A701023FB1800225A701023FB18180003F07CFF1023FB1807221A701023FB1801225A701023FB18180003F06FFF0023002B01D001F076FFB64B1B681800FFF761
:4016000081FF031E11D0B34B1B68180001F076FFB04B1B6800211800FFF77CFEAD4B1B6801211800FFF776FE36E0AB4B1B781A003F231A40A94B1B789901FC231B010B40C7
:401640001A43A74B1B781903F8235B020B401A43A44B1B785904FE231B040B401343BB61BB69DAB2A04B1A70BB691B0ADAB29E4B5A70BB691B0CDAB29B4B9A709A4B1800FF
:4016800001F03CFF984B00211800FFF743FE964B01211800FFF73EFE00200CF027F80C23FB183F221A700C23FB1800225A700C23FB1818000CF038F88C4B04221A70EAE0F1
:4016C0003B681800FFF710FFE5E03B681A78884B1A70E0E03B687B617B691B78002B00D0D4E07B695B78002B0BD1824B0A22DA80804BB4229A807F4B7F4A1A607B697D4AEA
:401700005A60724B1B78DBB201229343DAB26F4B1A70BBE06D4B1B78DBB21A002023134000D0B5E0754B1B78102B02D1734B0522DA70734B1B78714A110018000CF0F4F814
:4017400003001A000A23FB181A800A23FB181B88002B06D06B4B1B680A22BA181100362098475A4B1B78DBB201221343DAB2574B1A708DE03B681800FFF7FEFE8BE03B68F3
:401780001800FFF7F9FE594B02221A7083E0574B04221A707FE0554B1B78022B00D179E04A4B1B78DBB21A000123134000D171E0464B1B78DBB21A00042313400BD04B4B16
:4017C00003221A70414B1B78DBB204229343DAB23E4B1A705EE03D4B1B78DBB21A00082313400BD0414B04221A70384B1B78DBB208229343DAB2354B1A704BE03B4B1B78E1
:40180000032B47D1394B04221A7043E03B681B881800FFF7A7FE3EE0394A3B681000190002231A0000F035FE314B00221A70FFF763FE30E0FFF74AFE2DE03B685B88B62B02
:4018400005D81E23FB183A6852881A8003E01E23FB18B7221A801E23FB1819883B681A8800231204120C1B0C1B04134318000DF007FA10E03B681800FFF7E6FD0BE03B6822
:401880001800FFF71BFE06E0C04604E0C04602E0C04600E0C0460D4B1B78DBB21A00112313400ED0094B1B78DBB201229343DAB2064B1A70134B1B68FA1D1278396810005F
:4018C0009847C046BD4608B080BDC046CB260020A0550100540F00207CF1FF0F7DF1FF0F7BF1FF0F78F1FF0F4C0F0020C2260020C426002054150020880D00209010002008
:40190000C8260020BC26002080B500AFC046BD4680BDC04680B584B000AF0200FB1D1A700F4B1B68DAB20F23FB1840218A431A70FB1D1B789B01DBB240221340D9B20F23FF
:40194000FB180F22BA1812780A431A70044B0F22BA1812781A60C046BD4604B080BDC0460002044080B584B000AF0200FB1D1A700F4B1B68DAB20F23FB1840218A431A7032
:40198000FB1D1B789B01DBB240221340D9B20F23FB180F22BA1812780A431A70044B0F22BA1812781A60C046BD4604B080BDC0460003044080B584B000AF0200FB1D1A7011
:4019C0000D4B1B68DAB20F23FB187F210A401A70FB1D1B78DB01D9B20F23FB180F22BA1812780A431A70044B0F22BA1812781A60C046BD4604B080BD0003044090B58BB0F5
:401A000000AF78602723FC1800F05BF903002370194B1A680C23FB181A60184B1A680C23FB185A607B68033B154AD35C1A000C23FB189A60134B1A680C23FB18DA601C23C4
:401A4000FB18114A1A600C23FA181C23FB185A600E4B1C22BA181A600D4B0E4A1A600B4B1B682723FB181B78180000F02EF9C046BD460BB090BDC04608010B4000010B4075
:401A80006857010030001040B6EA000008001040040010401700008080B584B000AF78600023FB60154B154A126801210A431A60134B144A1A60144B134A1268802109025B
:401AC0000A431A607B68002B12D01023FB600CE0012000F05DF800F019F8031E02D00023FB6005E07B68013B7B607B68002BEFD1FB681800BD4604B080BDC04660F02E40FD
:401B000078002E400220000010002E4080B582B000AF054B1B68012213407B607B681800BD4602B080BDC0460C002E4080B582B000AF0200FB1D1A7001BEC046BD4602B044
:401B400080BDC04680B582B000AF786009E00D4B1B68180000F0ACF87B680B4A944663447B607A6880231B029A42F0D8074B1B687A685343180000F09BF8C046BD4602B047
:401B800080BDC046A41000200080FFFF9C10002080B582B000AF0200BB1D1A80BB1D1B88044A12785343180000F082F8C046BD4602B080BDA010002080B500AF0F4B0F4A70
:401BC000126801218A431A600C4B0C4A126802218A431A600A4B0A4A126830218A4310210A431A60064B064A126807218A4301210A431A60C046BD4680BDC04600F02E4095
:401C000000FF2E4080B500AF0F4B0F4A126802218A431A600D4B0D4A126807218A4302210A431A60094B094A126830218A4320210A431A60044B044A126801210A431A606D
:401C4000C046BD4680BDC04600F02E4000FF2E4080B500AFFFF7B0FF044B044A1268802109060A431A60C046BD4680BD00F02E4080B584B000AF78600C4B1B680122134052
:401C8000FB607B68002B02D0012B03D005E0FFF793FF06E0FFF7B6FF03E00020FFF746FFC046FB681800BD4604B080BD00F02E400230800803D00138FDD1C046C046C04635
:401CC0007047EFF3108072B6704780F31088704780B582B000AF78600A00BB1C1A80BB1C1A887B681A60C046BD4602B080BDC04680B582B000AF78600A00BB1C1A80BB1C9D
:401D00001A887B681A60C046BD4602B080BDC04680B584B000AF494B1B78DBB21B02484A1278D2B21343FB60464B1B78DBB21B02454A1278D2B21343BB60BB68434A93420B
:401D400007D1FB68072B04D1414BBB600423FB6009E0BA68D4231B019A4204D1FB68042B01D13B4BBB603B4BBA681A603A4BFA681A603A4B1B78DBB21B02394A1278D2B24E
:401D80001343FB60FA6880239B019A4202D0FB68002B01D1334BFB60334BFA681A60334B1B78DBB21B02324A1278D2B21343FB60FB68304A934206D0FB682F4A934202D08F
:401DC000FB68052B01D12D4BFB602D4BFA681A602C4B1B681B097B602B4B1B68AA2B29D17B68012B26D9214B1B78DBB20E2B21D1264B1B78DBB29BB21B0299B2244B1B7889
:401E0000DBB29AB2BB1C0A431A80224BBA1C12881A60214B1B78DBB29BB21B0299B21F4B1B78DBB29AB23B000A431A801C4B3A0012881A60C046BD4604B080BDD9F0FF0FF5
:401E4000D8F0FF0FDFF0FF0FDEF0FF0F580B0000580D00006C002E4074002E40DBF0FF0FDAF0FF0F0220000078002E40DDF0FF0FDCF0FF0F0F0F000005050000050F0000A5
:401E800080002E40EC0F00F0E00F00F06DF2FF0F6CF2FF0F84002E406FF2FF0F6EF2FF0F94002E4080B582B000AF0200BB1D1A80BB1D1B881800FFF76BFEC046BD4602B089
:401EC00080BDC04680B582B000AF78607B681800FFF738FEC046BD4602B080BD80B500AF00F0ECF8C046BD4680BDC04680B500AF00F0F0F8C046BD4680BDC04680B500AFA2
:401F000000F0E8F8044B180000F0A2F8032000F0ADF8C046BD4680BD2121000080B500AF034B180000F080F8C046BD4680BDC0462121000080B500AF0223FF331800BD460A
:401F400080BDC04680B582B000AF78602B231800BD4602B080BDC04680B582B000AF78602B231800BD4602B080BDC04680B582B000AF78602B231800BD4602B080BDC0463A
:401F800080B582B000AF78602B231800BD4602B080BDC04680B582B000AF78602B231800BD4602B080BDC04680B582B000AF78602B231800BD4602B080BDC04680B582B0D6
:401FC00000AF78602B231800BD4602B080BDC04680B582B000AF78602B231800BD4602B080BDC04680B500AF2B231800BD4680BD80B582B000AF0200FB1D1A702B23180006
:40200000BD4602B080BDC04680B582B000AF786039602B231800BD4602B080BD80B500AFC046BD4680BDC04680B582B000AF786000F050F87B68180000F00AF8032000F073
:4020400015F800F03BF8C046BD4602B080BDC04680B582B000AF7860034B7A681A67C046BD4602B080BDC0460000002090B585B000AF0200FB1D1A700623FB600B23FC18E2
:40208000FFF71FFE030023700B4B0B4A1268C0218A431100FA1D1078FA68904002000A431A600B23FB181B781800FFF70EFEC046BD4605B090BDC0460CE400E080B500AF46
:4020C000034B802252011A60C046BD4680BDC04600E100E080B500AF034B802252011A60C046BD4680BDC04680E100E090B583B000AFFC1DFFF7E5FD03002370074B074A97
:40210000126804218A431A6030BFFB1D1B781800FFF7DBFDC046BD4603B090BD10ED00E080B500AF12F0AAFBC046BD4680BDC046002243088B4274D303098B425FD3030AE3
:402140008B4244D3030B8B4228D3030C8B420DD3FF22090212BA030C8B4202D31212090265D0030B8B4219D300E0090AC30B8B4201D3CB03C01A5241830B8B4201D38B03BB
:40218000C01A5241430B8B4201D34B03C01A5241030B8B4201D30B03C01A5241C30A8B4201D3CB02C01A5241830A8B4201D38B02C01A5241430A8B4201D34B02C01A524166
:4021C000030A8B4201D30B02C01A5241CDD2C3098B4201D3CB01C01A524183098B4201D38B01C01A524143098B4201D34B01C01A524103098B4201D30B01C01A5241C308B5
:402200008B4201D3CB00C01A524183088B4201D38B00C01A524143088B4201D34B00C01A5241411A00D20146524110467047FFE701B5002000F0F0F802BDC0460029F7D0A0
:4022400076E7704703460B437FD4002243088B4274D303098B425FD3030A8B4244D3030B8B4228D3030C8B420DD3FF22090212BA030C8B4202D31212090265D0030B8B4269
:4022800019D300E0090AC30B8B4201D3CB03C01A5241830B8B4201D38B03C01A5241430B8B4201D34B03C01A5241030B8B4201D30B03C01A5241C30A8B4201D3CB02C01A82
:4022C0005241830A8B4201D38B02C01A5241430A8B4201D34B02C01A5241030A8B4201D30B02C01A5241CDD2C3098B4201D3CB01C01A524183098B4201D38B01C01A5241E8
:4023000043098B4201D34B01C01A524103098B4201D30B01C01A5241C3088B4201D3CB00C01A524183088B4201D38B00C01A524143088B4201D34B00C01A5241411A00D238
:4023400001465241104670475DE0CA0F00D04942031000D34042534000229C4603098B422DD3030A8B4212D3FC22890112BA030A8B420CD3890192118B4208D3890192113F
:402380008B4204D389013AD0921100E08909C3098B4201D3CB01C01A524183098B4201D38B01C01A524143098B4201D34B01C01A524103098B4201D30B01C01A5241C3086D
:4023C0008B4201D3CB00C01A524183088B4201D38B00C01A5241D9D243088B4201D34B00C01A5241411A00D20146634652415B10104601D34042002B00D5494270476346DF
:402400005B1000D3404201B5002000F005F802BD0029F8D016E770477047C046014B18687047C046641400200E4B70B500251E000D4CE41AA410A54204D0AB00F35898477B
:402440000135F8E713F0F4F9084B00251E00084CE41AA410A54204D0AB00F35898470135F8E770BD3C5801003C5801003C5801004458010030B50024A24208D0035D651CE7
:402480000C5DA34201D0181B02E02C00F4E7002030BD002310B59A4203D0CC5CC4540133F9E710BD03008218934202D019700133FAE770470FB40B4B13B51C68002C05D01D
:4024C000A369002B02D1200000F05AFA05AB049AA1682000019300F01FFC16BC08BC04B01847C0466414002070B505000E00002804D08369002B01D100F042FAAB69AC68A0
:40250000002B02D1280000F03BFA254B9C4201D16C6808E0234B9C4201D1AC6803E0224B9C4200D1EC68A3891B0702D52369002B11D12100280000F0B9F800280BD0012023
:4025400040422BE0013B0136A360002B08DB23685A1C226019703178A3680029F2D10BE0A269934201DB0A29F1D12200280000F045F8431CEFD1E2E7013BA360002B08DA57
:4025800022000A31280000F039F8431CD7D00A2004E00A2023685A1C2260187070BDC0469C570100BC570100DC57010010B5034B01001868FFF798FF10BDC0466414002031
:4025C00010B5002A12D00C78013A431C04700131002C01D19A1801E01800F2E79A4202D01C700133FAE7002800D1100010BD0023C25C0133002AFBD1581E7047F8B5050055
:402600000F001400002804D08369002B01D100F0B7F9234B9C4201D16C6808E0214B9C4201D1AC6803E0204B9C4200D1EC68A369A360A3891B070AD52369002B07D0236842
:402640002269FEB2981A636998420FDB08E02100280000F02BF80028F1D0012040421DE02100280000F01EF90028F6D1A3680130013BA36023685A1C22601F70636998429E
:4026800005D0A3893000DB0708D50A2E06D12100280000F007F90028DFD13000F8BDC0469C570100BC570100DC570100364B70B51D6806000C00002D05D0AB69002B02D192
:4026C000280000F05DF9314B9C4201D16C6808E02F4B9C4201D1AC6803E02E4B9C4200D1EC680C22A35E9AB2110723D4D10607D409220120326037321343A381404242E046
:40270000530713D5616B002908D023004433994202D0300000F02CFA002363632422A3899343A38100236360236923600822A3891343A3812369002B0BD1A0238022A189C1
:402740009B0092000B40934203D02100300000F0D1F90123A289134005D00023A36063695B42A36103E0920700D46369A36000202369834207D10C22A35E1A0603D5402233
:402780001343A381013870BD641400209C570100BC570100DC570100F7B58A8905000C0013075AD44B68002B02DC0B6C002B19DDE76A002F16D000232E682B6080235B0150
:4027C0001A4001D0606D14E00123216A2800B847431C0ED12B68002B0BD01D2B01D0162B02D12E6000205AE04022A3891343A38155E0A3895B0706D56368C01A636B002BE7
:4028000001D0236CC01A00230200216A2800E76AB847A389421C06D129681D293AD8204ACA40D20736D50022626022692260DB0405D5431C02D12B68002B00D16065616B98
:402840002E600029CED023004433994202D0280000F08EF90020606321E00F69002FC1D00B680F60DB1B01930023920700D14B69A36003E0019B3F181B1A0193019B002BEB
:40288000B0DD019B3A00216A2800A66AB0470028F0DCA389402201201343A3814042FEBD010040200B6970B505000C00002B01D100201CE0002804D08369002B01D100F0A8
:4028C0005FF80B4B9C4201D16C6808E0094B9C4201D1AC6803E0084B9C4200D1EC680C22A35E002BE4D021002800FFF755FF70BD9C570100BC570100DC57010010B5024954
:4029000000F0B0F810BDC046A5280000002310B5040003604360836081814366C281036143618361190008225C30FFF7BBFD054B24626362044BA362044BE362044B2363DB
:4029400010BDC04695320000BD320000F53200002133000070B568254B1E5D430E002900743100F051F9041E08D000212A00016046600C30A0606832FFF794FD200070BD8C
:40298000836913B50400002B28D18364C3640365134B144A1B6882620193984201D101238361200000F020F86060200000F01CF8A060200000F018F80022E06004216068DF
:4029C000FFF7A4FF01220921A068FFF79FFF02221221E068FFF79AFF0123A36113BDC04698570100FD280000F8B51D4B06001D68AB69002B02D12800FFF7C2FF4835AC68F2
:402A00006B68013B05D40C22A75E002F10D06834F7E72B68002B01D02D68F0E704213000FFF798FF28600028F6D10C23336016E0012320005B42E3810233A38167662760F4
:402A4000A760676027616761A7615C3008223900FFF728FD20006763A763A764E764F8BD98570100F7B504000700002601914834002C16D06368A5680093009B013B009365
:402A80000DD4AB89012B08D90E22AB5E013304D029003800019B984706436835EDE72468E6E73000FEBD000070B50E001D000E23C95E90B01400002906DA00232B60B389EA
:402AC0001B060FD540230FE001AA00F055FC0028F3DBF023029A1B021340054A9B185A4253412B608023DB000020236010B070BD00E0FFFFF7B502268B8905000C00334267
:402B000010D101AB6A46FFF7CFFF00990700280000F07AF800280CD10C22A35E9A0523D43343A3812300473323602361012363611AE080220D4BAB62A38920601343A38153
:402B4000009B20616361019B002B0AD00E23E15E280000F023FC002803D00122A3891343A381A3891F43A781F7BDC046FD28000070B50500002944D00C1F2368002B00DAB2
:402B8000E418280000F03BFC1E4A13681100002B02D16360146031E0A3420DD92268A018834203D118685B688218226063600C6024E0A24203D813005A68002AF9D11E684A
:402BC0009819A0420BD12168711858181960824214D110685268411819605A600EE0A04202D90C232B6009E021686018824203D1106852684118216062605C60280000F07B
:402C0000FFFB70BDAC260020032370B5CD1C9D43083506000C2D01D20C2501E0002D01DBA94202D90C23336048E0300000F0E7FB234B1C681A002100002913D00B685B1B29
:402C40000DD40B2B02D90B60CC181EE08C4202D1636813601AE04B6863600C0016E00C004968E9E7174C2368002B03D1300000F0FFFA20602900300000F0FAFA431C18D02D
:402C80000323C41C9C43A0420DD12560300000F0B7FB200007220B30231D9043C31A0ED05A42E2500BE0211A300000F0E1FA431CEBD10C233000336000F0A2FB002070BDF0
:402CC000AC260020A8260020936810B5013B9360002B05DA9469A34208DBCBB20A2B05D01368581C10601970C8B201E0FFF786FC10BDF8B506000F001400D518AC4208D09E
:402D000021783A003000FFF7DFFF0134431CF5D100E00020F8BD0000F0B59FB006000F0002920593002804D08369002B01D1FFF727FE7F4B9F4201D1776808E07D4B9F428B
:402D400001D1B76803E07C4B9F4200D1F768BB891B070AD53B69002B07D0002306AD6B6120336B761033AB763DE039003000FFF79DFC0028F1D001204042D6E0059A111D5E
:402D800012680591002A00DA7FE00992013423782E2B00D18DE021780322684800F024FB002807D0654B2A68C01A4023834013432B6001342178631C0622614802932976AD
:402DC00000F012FB002800D19DE05E4B002B00D090E00722059B07339343083305936B69039A9B186B61029C2378002B04D1029BE31A049312D003E0252BF8D00134F3E75A
:402E0000049B029A39003000FFF773FF431C00D186E06A69049B944663446B612378002B7ED00122002352426A6002A95432521801342B60EB60AB601370AB652178052275
:402E4000414800F0D1FA002808D03F4B2A68C01A0123834013432B600134EFE72B68DA0604D55322202102A8121811701A0704D553222B2102A81218117022782A2A00D11F
:402E80007CE7099B00200A2105E05242EA60022213432B607AE72278303A092A04D84B4301349B180120F6E7002800D16FE709936DE763782A2B0AD1059B02341A1D1B6836
:402EC0000592002B01DA01235B42079363E700230A201A0001346B6021783039092904D84243013452180123F6E7002B00D152E7079250E705AB00933A00144B29003000BA
:402F000000E000BF07E005AB00933A000F4B2900300000F08BF80390039B013300D05EE7BB895B0600D526E70B981FB0F0BDC0469C570100BC570100DC57010002580100AB
:402F40000658010000000000FC570100F32C0000F7B5170001938A680B6900900C00934200DA130022003B6043321278002A01D001333B6023689B0602D53B6802333B6068
:402F8000062523681D401ED0230043331B785A1E9341226892061CD53020E1184331087021005A1C45310978A2184332023311700FE022000123193201990098089EB0478E
:402FC000431C0ED00135E3683A689B1A9D42F0DBDAE72200019943320098089DA847431C02D10120404220E006232068E1683A6803400025042B03D18D1AEB43DB171D40F4
:40300000A3682269934201DD9B1AED180027BD420AD0220001231A3201990098089EB047431CDED00137F2E70020FEBDF0B58BB006920A0043320793059004920A7E0C00E3
:40304000109B6E2A00D1ABE011D8632A22D009D8002A00D1B5E0582A00D0C5E045310A70814A4FE0642A1DD0692A1BD0BCE0732A00D1AAE009D86F2A29D0702A00D0B3E0FA
:40308000202209680A43226037E0752A1FD0782A33D0A9E00E001A684236111D196013683370A4E021681A68080606D4490604D5111D19600023D55E02E0111D196015684C
:4030C000002D3BDA2D23049A6D42137036E021681A68080606D4490604D51568111D1960ADB202E0111D196015685F4B227E039308276F2A1DD00A271BE0220078214532C1
:4031000011705A4A19680392081D226818600D68100602D4500600D5ADB2D30702D520231A4322601027002D03D1202322689A4322602300002243331A7002E00A274A4B1E
:4031400003936368A360002B09DB0422216891432160002D05D1049E002B11D07BE0002D79D0049E28003900FFF768F8039B013E5B5C280033703900FEF7DAFF051EF1D1B2
:40318000082F09D12368DB0706D563682269934202DC3023013E3370049B9B1B23612BE009681A68080607D4490605D5111D19601368A28A1A8004E0111D196013686269D6
:4031C0001A600023049E236116E01A68111D1960166800216268300000F006F9002801D0801B6060636803E0260042363270012323610023049A1370079B09AA009321002E
:40320000069B0598FFF7A4FE431C02D10120404227E02369320006990598079DA847431CF4D0236800259B070FD4099BE068984217DA180015E02200012319320699059866
:40324000079EB047431CE1D00135E368099A9B1A9D42F0DBE9E72600039B42361B7833708EE70BB0F0BDC0460D5801001E580100002370B5064C050008002360FDF72CFCD7
:40328000431C03D12368002B00D02B6070BDC046CC26002070B50C000E25495F00F0B2F8002803DB636D1B18636503E0A289024B1340A38170BDC046FFEFFFFFF8B51F0051
:4032C0008B8905000C001600DB0505D50E23C95E0022022300F074F8A289054B28001340A38132000E23E15E3B0000F01FF8F8BDFFEFFFFF70B50C000E25495F00F060F8EB
:40330000A389421C03D1054A1340A38104E0802252011343A381606570BDC046FFEFFFFF10B50E23C95E00F015F810BD70B50500080011000022064C22601A0000F09EF872
:40334000431C03D12368002B00D02B6070BDC046CC260020002370B5064C05000800236000F064F8431C03D12368002B00D02B6070BDC046CC260020002370B5064C050026
:4033800008001100236000F059F8431C03D12368002B00D02B6070BDCC260020002370B5064C05000800236000F050F8431C03D12368002B00D02B6070BDC046CC260020C2
:4033C00070B50500080011000022064C22601A0000F044F8431C03D12368002B00D02B6070BDC046CC260020C9B28218904204D003788B4202D00130F8E700207047704752
:403400007047000070B50500080011000022064C22601A0000F02AF8431C03D12368002B00D02B6070BDC046CC26002058220120014B40421A607047CC26002058220120A0
:40344000014B40421A607047CC2600205822024B00201A607047C046CC26002058220120014B40421A607047CC26002058220120014B40421A607047CC2600205822012018
:40348000014B40421A607047CC260020134A1088810703D08107890F401A001D11791030484381B25088820703D08207920F801A001D800040180A494030098980B2CA0747
:4034C00001D0503080B2890706D504495422091F09785143081880B270470000B21000206815002010B501F011FF10BD10B501F013FF10BD10B500F05BFA10BD10B5074942
:40350000044609780220002907D1204601F054FF002802D120460AF0EDF910BD5012002070B504460120002C12D02368002B0FD0616800290CD0074D062228892081184636
:403540002968FEF7A6FF6968606809780170002070BD000068150020FFB585B0002768460E9D07734F481C460078002802D0082009B0F0BD10990F9801900095029105A819
:4035800007C800F007F90028F2D16946264603AB84460873002C19D0002115E08A00B75A082F09D990198078002805D0083FB7521878401C187005E0002914D00027B752F0
:4035C00090198770491CC9B2A942E7D360460028CED10F98002809D0109901F047FA002804D00120C4E701208446EFE701F094FE2D480021416081600599016021888180E9
:40360000022D07D3A1798171A17AC171A1890181218A418100211EE0481C19E082008B00A75AE65ABE46BE4211D26F463E80B4461E190296B678BE7001967646E65217190B
:40364000029EBB78B3706646A652019EBE70401CA842E3D3491CA942DED3134822460C3000906846037B0799069800F01BF90028B8D168460B4C007B60700B480C3001F068
:403680007BFE0028AED1084907480C3107F002FA0028A7D107F01CFA0028A3D10121217066E70000AC1000205C150020F8B5054636480F460078002802D002242046F8BDE6
:4036C000002F60D000243249002D16D02A89D0070DD02868002808D003881B3BE12B04D24088FB2801D81B2801D2012409E0900707D56868002804D1F7E7002008810860E8
:403700004860002CDAD122482E8906811F481B21801D01804180042101711C490020891C0870F00705D019480622801D2968FEF7B0FE1749B00703D56A68144812788270E8
:40374000124D0E46AD1D281F0D60486001F05AFE284601F049FE30890DF018FE30890DF001F828880DF004F830890DF079FF03461033FFF78BFE1F21C01889014018388072
:40378000A91F88809AE7012498E70000AC10002068150020FFB58446384F1C460020BB883F78054602460646002F11D100290ED0029999420BD36146002908D0002C06D025
:4037C0000A99002906D02E4B0B99994202D2012004B0F0BD002144E0AB001F19BF78002F3BD0E35A002B38D07B43591889B22B0000F04AF8050410161C253100A77823889E
:40380000BC46FF27233BEB37BB4222D26346032B1FD322E0A388002B1FD0302B19D31CE02389002B19D0282B13D316E0A289002A13D01346134F233BBB420AD20DE0268AE6
:40384000002A0AD033460F4F233BBB4201D2964203D901200EE0002001E000280AD16D1CEDB2099B9D42B7D31C2463435B1802998B42ACD89642AAD8AAE70000AC10002037
:4038800079020000BAFF000030B47446641E2578641CAB4200D21D46635D5B00E31830BC18470000FFB583B0002469460C801F4606468C80002806D00598002803D00498DF
:4038C0003043800701D0012466E0002FFBD03449049809888842F6D3FEF720FBFEF706FB00F016FC002855D100F07EFD002851D12C49084601F0EEF805042D0C4AD12A48E7
:403900000499066081800021C18007810C98007AC00704D0684601F018FD040007D10C98007A800703D501A801F018FD0446BF1DFEB2002C20D13146059800F05DF80400D4
:403940001AD10DF09BFE040016D16A461088928808368518144AF1B29088D288AEB29319984207D3401B801A80B201F0A3FB050007D000E0FF25012400F062FA002D04D063
:4039800008E0F8B200F01CF9F6E700F085FA07490120087000F0CEFB204607B0F0BD0000B0100020E53A000074150020B810002010B503480078012801D101F01DFA10BDD0
:4039C000B810002070B5084B0446DA889E8803205518B54206D8186880182060D8884018D880002070BD000074150020014800897047000074150020F0B587B007460D46E4
:403A000000208900009006916846FFF7DBFF844600285DD1304800990160002117E02E4B88001A680629115406D22C4C0419667882185670628805E0C419203CA67A82180A
:403A4000567022891B68C018491C4280C9B2A942E5D300242DE0601CC2B2059025E01E4FA30039689600581840887118039604904E88B04217D938466F46FE80B6464F7819
:403A80006E4677710297049F4F800168039F5E18767879184E700168764659184E800068029F18184770521CD2B2AA42D7D30598C4B2AC42CFD36046002809D1684606992D
:403AC000FFF780FF8446002802D1054900980860604607B0F0BD0000BC10002068580100C01000207047000010B5002809D005494A68002A05D0011F08788000105801F0A2
:403B000087FA10BDBC10002010B50446FFF76EFFC0B2801DA0420CD307484068002808D0A100405801F0E6F9002801D00470001D10BD002010BD0000BC100020F8B51646D0
:403B40000D460446FFF752FFC0B2801DA04203D20020C0430090F8BDB2B2E9B2684601F0EFF90099481C03D0024AA000526811500098F8BDBC100020F8B50746FFF736FF78
:403B8000801DC6B20A49002005460C680DE06178002907D06188B94202D32078FFF7B4FF002804D1241D6D1CEDB2B542EFD3F8BDBC10002010B5002801D0FFF795FF10BD29
:403BC00070B506460948002504680BE06178002905D062882078121D0023FFF7AFFF241D6D1CEDB2B542F1D370BD0000BC100020FFB581B00A9F16000C4620D000F0F6F837
:403C0000054604281BD0002F0CD03846FFF7B4FF20492A0151184860002810D03A460499FEF737FC1B4928010E504618778101980570200406D47D20C000444304E0FF20CA
:403C400005B0F0BD6404640C00F0BEF80746042807D000F053FAA0420BD800F04FFA201A03E0204600F0AEFA0020F06035720020E6E700F043FA009000F0BAFA009801219F
:403C8000001B009000F0F0F802493A0151180098C860E6E780150020F8B5042801D3FF20F8BD060116483418217A042903D0E068002802D017E00020F8BD00F01FFA054621
:403CC00000F096FA00F0A0F804280CD001010C480F18F8680021451900F0C6F80020F860284600F06FFA6068054D002801D0FFF761FF042020720020A8516081E060DAE751
:403D000080150020FEB500266A46304601232549050169180D7A042D02D0C96800291BD000211154401CC0B20428F0D300246846005D002830D01B4821010818418947682F
:403D400005680291002101604160042241810272C160002E02D015E01354E3E700F054F804280ED001010F4808180190C6680021304600F079F801980021C160304600F0C6
:403D800021FA0126002D07D038460299A847002F02D03846FFF70EFF641CE4B2042CC6D3FEBD0000801500200EB5002005216A460090118150810348694600680EF0C3FA1B
:403DC0000EBD0000C4100020074A0020010189180B7A042B02D0C968002903D0401CC0B20428F3D370470000801500200549002002015218127A042A03D0401CC0B20428AF
:403E0000F6D370478015002030B50A4B04200A4C00210A011219157A042D06D0D268002A03D09A4201D808461346491CC9B20429EFD330BDFFFF00008015002070470000F3
:403E400030B50020074C05460423020111190B72A5504D60401C4D81C0B2CD600428F4D330BD00008015002030B5094C00231A011219157A042D04D0D568002906D02D1816
:403E8000D5605B1CDBB2042BF1D330BD2D1AF7E780150020002070471CB5002469460C70142001902346054A05480EF051FA04480068401C00D1FF2420461CBD153F00006E
:403EC000C41000203EB5124A0146FF2000230124126800290DD0012914D0042908D104206946009308814B8110460EF02CFA80B23EBD6846009304814381694610460EF04E
:403F00001DFAF4E768460093048143816946EBE7C410002070B545890468416800890300FFF7B2FC08280509091E22282628002005F066FC1EE0022908D0C8B22A46214692
:403F40000CF064FB2046FFF735FE13E002202A4621460CF05BFB2946204600F00DF809E000200DF0EFFE05E02046FFF7CBFE01E0FEF754F8002070BD014B0022DB681847D3
:403F8000C810002070B5448905680089022803D0032809D0FF2070BD2246094C0023A46829460120A04708E0FFF7A0FA241DA2B200232946022006F020FC002070BD000051
:403FC000C810002070470000024800214160018041807047C810002070B50C46002186B016460391012802D0022859D116E003A9012006F057FC01281BD1039D3246214668
:404000002846FEF746FA0095287801900220694608814E816846FFF7B5FF41E0214D002B686809D0049004A9022006F03BFC01281DD0022006B070BD002812D02988401875
:404040002146FEF726FA28880024801980B228806988091D884206D12C801348FFF792FF03E00320E6E788421AD96C6018E004986860E278A378110219430B4A698000233A
:404080001060E3565360032313815181A1788170E178C1706178417021780170042028800020C7E7C8100020C01500203EB515460C46022803D004280CD000203EBD009118
:4040C000019002206946088107484A8100680EF03AF907E00CF09AFA044B0022DB6829462046984701203EBDC4100020C8100020014AD16090607047C8100020034801686C
:404100008068081A0A21484300097047CC15002010B5FDF7F3FE4C2204490548FEF7B9F903490120C870002010BD000084580100D019002010B5FDF7D1FE10BD70B5134C54
:404140002368002B08D0207B1149C20705D04008400020738868A08070BD88680B4AA18880B29268814203D90A4D691A091802E0814202D2411A5118A160A080A068984252
:40418000EAD30EF0FDF800F013F870BDCC150020C0102E40FFFF000010B508461946FFF7A7FF10BD704710B5FFF780FF10BD000003480021016041608160C160704700002A
:4041C000CC150020024610B5FF20002A0CD0FFF7EFFF064C0321207B0843207310010A21FEF72CF82060002010BD0000CC15002000B504480A21806848430209FFF7D8FF7F
:40420000104600BDCC1500200248007B8007C00F70470000CC15002010B54B490868002802DA4A4B01221A70022290430860484800694549C00B4031096A0246C907C90F03
:404240000A4259D0012000F097FA3F480E216C30FDF74EFD3E4820218430FDF749FD3C4814219C30FDF744FD3948FF21C131A430FDF73EFD3648FF212F31B030FDF738FD8A
:4042800033483449BC30FDF733FD31483249AC30FDF72EFD30492E48491CB430FDF728FD2B482E49B830FDF723FD29482C49CC30FDF71EFD26482B490830FDF719FD24484F
:4042C0002949A830FDF714FD214828498830FDF70FFD1F4826498C30FDF70AFD1C481921C9029030FDF704FDFDF712FDFDF722FEC0B2022812D01FE000290BD00021014236
:404300000AD0114801216030FDF7F2FC0120FDF7D9FD97E70121F2E7FF2010BD15491648FDF7E6FC14481549001DFDF7E1FC124800210830FDF7DCFC54200449C043891C44
:404340000870002010BD000000F02E40D810002000002E40320300002F3F00003102000010520000EC160000FA12000031D000003AE300009956000080012E40F80F0000BB
:4043800070B50646581C80B245086D00002408E0304600F0C1F81055000A1119A41C4870A4B2AC42F4D3D80705D0D0182038D15CC47FD454C17770BD30B50A4C002100197F
:4043C0005B1E07E0541864782502545C2C430480891C89B29942F5DB994201D1515C018030BD000000102E4010B5FF2000F0C4F90F49FF2048700E481021801D41800121B3
:40440000417001700A490020C91C4870FFF704FF04000AD100F010F907210648FDF758FC044807211830FDF753FC204610BD0000D8100020CC112E4070B5002405465B1E29
:404440000AE0284600F068F8010A161971702D1D1055A41CADB2A4B29C42F2DB9C4203D1284600F059F8105570BD000070B500210A4D5B1E0AE0541864782602545C344320
:4044800046193480001D891C80B289B29942F2DB994202D1515C4019018070BD00102E40F0B50599091FCFB200217E1E0BE0541864782502545C2C43164D45192C80001D86
:4044C000891C80B289B2B142F1DBFC0712D01C78515C24020F4A0C4381180C809C785D78001D210280B2294384182180001D80B2D9780CE059781A7809021143054A841895
:404500002180001DD9789B78090280B2194380180180F0BD00102E40014940180088704700102E4010B50B490020487000F084F8002000F047F9002000F034F907210648BD
:40454000FDF7C6FB044807211830FDF7C1FB002010BD0000DB100020CC112E4010B50B46062812D006DC01280CD0032801D1FFF7D9FF10BD0A28FCD00B28FAD10548007871
:40458000107010BDFFF730FF10BD1146184600F035F910BDDE100020F8B5244DAC6A0127A007234E002816DA307806280ED1286A384328621F480069F903084381B21D4887
:4045C0001030FDF795FB042000F0D6F8174802212830FDF77DFBE00718D000F01FFF01280FD1002000F06CFF062000F0C5F81049FF20C91E48707078002802D1686B384353
:4046000068630A4801212830FDF762FBE0050BD53078042802D1052000F0AEF80348FF2101312830FDF754FBF8BD000040F02E40DB10002000002E4010B503212348FDF71F
:4046400057FB0120FDF72EFC20483038406A204C80076178800F890001431C480C38FDF747FB6078002808D0401E022181401820FDF7CEFEC000083800E0B82081B21548CF
:40468000FDF736FB1348032109021438FDF730FB10481149B830FDF72BFB612189010F48FDF726FB0D480321001FFDF721FB0C490C48FDF71DFB0B480B496038FDF718FB11
:4046C000084801218838FDF713FB10BD70F02E40DE100020D8102E4090890000041E2E40FF0F000058122E40209000000848017806290BD140780749002803D1486B400875
:4047000040004863C86A01221043C86270470000DB10002040F02E400148007870470000DB10002000B50300FFF7AEF8080D050D0B070507090D012000BD032000BD042048
:4047400000BD022000BDFF2000BD0000074A9168D26889B2064B92B2994204D105498A4201D1012100E000210170704780002E4033D000003FE3000010B50446FDF7B6FBBF
:40478000072C01D9FF2C01D102480470FDF7A6FB10BD0000DB1000200149487070470000D810002010B5064A012805D01921C9021046FDF79DFA10BD1D21C902F8E7000055
:4047C00090002E4010B50A4A141D012808D009491046FDF78DFA08492046FDF789FA10BD04491046891CFDF783FA0349491DF3E788002E4031D000003AE3000070B50C4682
:404800000546FDF797FBC0B202280E49287804D0FF2810D04C280CD810E0FF2809D10A4AD0680004800F032801D0087807E09069000A553803E00878207070BD4F382070A7
:40484000087070BDDA10002000002E40F0B50122002834D0002932D00424420600D00524792342065B06D21800D0641C034600221EE00C2516466E43124D00277519AF7238
:40488000104F002ABB51696007D0661EB24209D10D4E86197606760E05E05E06760E8027BE1B00E080269B198919521C2E81D2B2A242DED303480549006B002288611046B3
:4048C000F0BD00005818002079020000E410002018B50020694608700A48006900280ED0132149014018047E684604704F21C900054800F05BF8A04201D0012018BD00200B
:4049000018BD0000E4100020DC150020074900200C2242435218927A012A05D0401CC0B20628F5D3002070470120704758180020F8B50F000446164609D01A4D1A4968680C
:40494000A04202D94018A04201D38E4201D90120F8BD39462046FDF78DFD002820D0324639462046FDF795FD0E49F0B2012620318E7600210C220B4653430A4A9A18138941
:404980005568EF18A74207D9641B1B1B9672834206DAC01A1469C0B2491CC9B20629E9D30020F8BD5818002079020000034610B50020024604E09C5C2018521CC0B292B2E6
:4049C0008A42F8D310BD000070B500F05FF8084C064A216907480D46FDF75BFD05492846FFF734FFFFF774FF207070BD79020000E4100020DC150020002070470020054ADA
:404A0000002902D0012902D002E0906000E0D06000207047E410002070B5084C154608460549E26889182A46FDF733FDE0684019E06028B270BD0000DC150020E4100020B6
:404A40003EB50A226946FFF7E7FF044606480A2200686946FDF70EFD002802D00020C0433EBD20463EBD0000E8100020002802D0044A914201D2FF20704703494A610861FD
:404A80000020704779020000E4100020024800218160C16070470000E410002070B5074C15460548A26880182A46FFF741FFA0684019A06028B270BDDC150020E410002063
:404AC00010B503490A220968FFF7E8FF10BD0000E810002010B50F4A002313600E4A13600E4B18600E4801600E49012008600E490860000290600E490C4808600D49143001
:404B00000860FF381538506000F0BCF800F0CAF9002010BD18110020001100202C110020301100201C1100200C110020A01900201011002024110020014610B5002000290F
:404B400010D0094B1A689C685118A14209D25868196080188A0704D08A07920F891A091D196010BD002010BD00110020F8B50024164E671E321F3D463168136806E0142201
:404B8000624310328A58521C1BD0641C9C42F6D36A1C14D02C461422544322460C3288500C214843FFF7C8FF3168002808510AD031680020103408517068401C7060284654
:404BC000F8BD2546E4E73846F8BD000010110020F3B50026F64381B000281BDB1E490968884217D80299002914D01B4F142204463F1D54432546396810354859401C09D0C3
:404C0000FDF774F938682F1F4159C359994203DBFDF764F93046FEBD214608310091465801590C20704308180C220299FDF731FC0948761C001D0068C159B14200D10026B6
:404C40000549009A091D865008684159491C4151FDF744F90020FEBD0C110020002803DB07490968884202D90020C043704704491422091D096850431030085870470000BC
:404C80000C110020F0B500200D4A451E0346171F50600FE014260146714314680E1DA3510C461668083433511668083435511468401C635039688842ECD30020F0BD0000F8
:404CC00010110020F3B50026F64381B0002841DB2349096888423DD8029900293AD0204F142204463F1D54432546396810354859401C2FD0FDF7FAF83868415900292BD0FA
:404D0000211D009146580C21005971430F46C1190C220298FDF7BDFB11480021001D0068761C00590C34C0190160416081600C48001D00680159B14200D100260849009A3B
:404D4000091D865008684159491E4151FDF7C6F80020FEBD3046FEBDFDF7C0F8FAE700000C110020FEB504460D4600201E49089E0860471E009001900290002C11D04868F2
:404D800085420ED2002A0CD0002E0AD0642E08D808460C3001681C2068430C18207A002801D03846FEBD0120226020721846FFF7DDFE6060401C13D06681A6810A482761B7
:404DC0000C3067610179A94200D205710021684601810A462846029B00F040F82846FEBD00202072DDE700001811002038B50124009400F039F838BDFEB50027164EFF430A
:404E00003D4600240EE01C20316860430818017A002906D04068FFF721FF002801D0254603E0641C3079A042EDDA681C12D01C2130684D434419FDF759F869466068FFF71A
:404E400041FF0546FDF74AF8002DD9D1216868468847D5E7FEBD00002411002038B50024009400F001F838BD1FB500220C49541E0A60002811DB496888420ED808491C221A
:404E80000C31096850430818406801A9FFF7A0FE401C02D0002004B010BD2046FBE7000018110020F0B50021114A4D1E174611710C3F0B46BD6016E008461C246043166882
:404EC000041D355114680646235014680836A3551468361DA353044616680A34335318301468491C255078688142E5D30020F0BD2411002038B500210091002811DB0F49A7
:404F0000097888420DDA0D4D04010C3529680859002807D0201D0818694600F06FF9002801D0002038BDFCF7E1FF28680F34015D491E0155FCF7D2FF009838BD34110020C5
:404F4000F7B582B0002502986E1E06602E48D21C024017462D4A2C4610460C380178106805E02301C358002B0FD0641CE4B28C42F7D3711C28D03401211D401801910399D1
:404F800000F02AF900281FD101E02646F1E71F48016820460C300F521C480399026820460E30115419480399026820460F3011540398784300F0A0F81449002809680851BD
:404FC00002D00024009011E001251AE00F48016801980818009900F02CF9002801D0012502E00098C0190090641CE4B203988442ECD3002D05D10298066004480179491C8D
:405000000171284605B0F0BDFCFF000040110020F8B50D4600216A468C461180002839DB23490978884235DA214B04010C3319680A59002A2ED020460C300B5A801C0E5CC3
:40504000184670438018954224D3854222D2002006E007465F43BF18AF4206D0401CC0B2B042F6D36046002814D0114E271DC8190C366A46294600F006F900280AD16846AB
:405080000088012808D030682946C01900F0D1F8002803D00120F8BD0020F8BDFCF726FF30680F34015D491C0155FCF717FFF3E734110020F8B50F46002400F031F800286D
:4050C00017D10C4900220B460C334A600EE021011D680E466A501D680C36AA53B61C1D680F31AA551D68641C6A54E4B2BC42EED31A71F8BD3411002000280BD0C01C074A2D
:4051000081085068890053884118994203D8936851601818704700207047000034110020F8B5064600200F4D009029700C0121466846FEF747FC00280CD129460C310098AB
:405140000860301B001F84B221466846FEF73AFC002801D0FF20F8BD6C800098A8600020F8BD000034110020F8B5002827DB19490978884223DA174C05010C342168485900
:4051800000281CD028460C30085A009028460E300E5C401C0E5420682F1DC01900F064F800280CD12068002445590EE0094829460C300068C01900F03CF8002801D00120BA
:4051C000F8BD00982D18641CE4B2B442EED30020F8BD00003411002030B50D4604000BD0A800FFF789FF6060002805D000202570C0436080002030BD012030BD70B50D46F1
:40520000040005D0002D03D00220205E002801DA012070BDFCF76AFE0221615E60688900405828606088401E6080FCF757FE002070BD70B50D46040007D0002D05D00221C3
:405240002078615E401E814201DB012070BDFCF74DFE6088401C00B26080616880000D50FCF73CFE002070BD10B5040009D0227800216068FDF716F90020C043608000200D
:4052800010BD012010BDF0B500231D46002802D00224045F0AE00120F0BD46689F00F6598E4201D1012503E05B1CDBB29C42F4DA15700020F0BD000001480078704700000C
:4052C000481100207CB505460024FEF70FF9A8796946087000A8062229460130FDF7D9F80021684604F05EFD0C2806D0072806D01F2806D0122806D006E0022404E00424A9
:4053000002E0272400E0012420467CBD0148012141727047DC1A002010B500F05FF9FFF7FBF9FFF7FFF910BD70B504460025FEF7DDF8002C06D0A079012803D8214602F029
:40534000C9FC00E00125284670BD01460120002902D05020088000207047000001460120002905D0034854220078504308800020704700004A11002010B502460D49FE2008
:405380004870032410460DF001FB002810D10DF0A5FA00280CD105F0E1FA002808D100F0F9FA002804D104F0A3FF002800D10024204610BD4811002070B500250446002849
:4053C0000ED0A07901280BD8FEF790F8A0790028204602D003F010F803E002F0E5FF00E00125284670BD0000014610B50120002904D006220248FDF74CF8002010BD00009E
:405400005411002001460120002903D00878024908700020704700004A1100200148007A70470000DC1A002038B504460120002C20D0617801291DD800290BD0FF25E535B0
:40544000FEF754F80C4828180088C0B22070072803D00EE0FF25CD35F2E70020694608706846FFF773F969460878012801D108202070002038BD000000102E40014A0021A6
:40548000926810474811002008B500226B461A7026280CD0094A342852680BD0352805D1900703D50021352005F034FB08BD19462620F9E7D007F9D03420F5E748110020CB
:4054C0000149087270470000DC1A0020F8B504460120002C26D06178012902D92278092A20D8002905D0FF25E5352078092803D004E0FF25CD35F8E708202070FDF7F6FFDC
:405500002078114F114E08280DD00020FFF75AF970780128207810D00D4969180880FE2070700020F8BD0120FFF74CF90720B8810549203188800120F2E7B881024821786A
:4055400020308180EBE70000C0112E404811002000102E4070B50E46050001D0002400E00C4C002C11D0E28A500609D5D107C90F022002F0D5FFE08A40218843E08204E006
:40558000D107C90F012002F0CBFF3146284602F0AFFC70BD3C1A0020F8B50546002004460D4E009013E022466946284601F004F80098002801D00DF0CBF9A878214602F0BC
:4055C000F1FAA878214602F0DFFA641CE4B2308AA042E8D8F8BD0000081B002038B51E4CFFF79AF8042813D0052811D0062812D003282AD007280AD100206946087002463A
:405600000120FEF7ABFFFFF787F80128FBD138BD00F09CFB38BD02F01BFB00F097FB02F07BFB8007800F0228F4D10C4841880029F0D05B21095D0029ECD101210170A07D5A
:405640000140022002F06CFF38BD02F005FB0120FFF792F838BD00003C1A00206E110020F8B50646002402F0C9FF0546304602F0DFFF03460A480021068A0DE001228A404A
:405680001046174628401F40002803D0002F01D1224394B2491CC9B28E42EFD82046F8BD081B00201CB50020694648706846FFF7BBFE01AA69460A20FEF750FF69460420A4
:4056C00008561CBD70B50D4601F05CFB04000BD02079002808D0FDF709FFE178A0782A4602F08CFC002070BD022070BD0148007970470000101A00204030C07E002800D0DF
:405700000120704700B500F001F800BD902148430749084A40186030417F491CC9B24177D289914201D300214177C8B2704700001C1A0020081B002013B501F023FB040098
:405740000BD001F0C0FE002807D0214601AA0A310620FEF703FF00201CBD02201CBD000010B50C4601F00EFB00280AD001F0ABFE002806D0224604490A20FEF7EFFE0020B6
:4057800010BD022010BD0000FD190020F3B581B0074601460026029802F028FF0446002F01D0002500E0154D002D21D0284601F01FFB032C04D13946029802F073FF06469C
:4057C0003846029902F0E0F9032C06D0002C10D00121384601F012FC03E03146384603F071F9284602F0C4F80221284602F0DAF8FEBD3846029902F0C7F9FEBD3C1A0020B8
:4058000010B5044600F04CFA002804D103F03CFE002801D00C2010BD2078611C02F0F4FCFF2801D01F2010BD02F03AFDFF280AD02178621C02F036F9044821780068026BF0
:40584000601C904710BD072010BD00009411002010B503F019FE002801D00C2010BD02F0B5FC03480068C06A8047002010BD00009411002070B50D46044610210CF0A8FFFF
:405880001021601806460CF0A3FF334610221946204603F027FE102130460CF099FF02202870204604F05AFC70BD0000FEB504464078217802028006870FE0781143A578C4
:4058C0000E050002360D0543304601F05BFAEAB23B4621460096019000F0FAF90006000E14D10B48224600680199436928469847C0B2FF280AD10198EAB24030817EFF23D5
:40590000491C81762146019800F0E1F8FEBD0000B01100200020704710B5044603F0B4FD002801D00C2010BD2078611C02F06CFCFF2808D002F0A0FB044821780068426B35
:40594000601C904710BD1F2010BD00009411002010B500F06BF904F0CBFC002010BD10B5044600786178E2780843A17811430843217908436179084305D003F077FD00284A
:4059800003D00C2010BD122010BD204602F034FD002010BD10B5FCF7CDFA02F051FE044803F0DEFD02F072FB012000F003F810BDE4190020F1B586B003A8009005A8019022
:4059C00028489F22017B114001736846FDF7A8FD002845D169460989C90705D0224806990068C2686846904769460989890706D5002835D11D480068816A06988847002883
:405A00002ED11B4E0025757075737571F575357675767575B570F570B5713746F5730120D03738731F20F880FF2130467972A0300176457600F008FB00242046069901F08D
:405A4000EDFC002803D1641C2406240EF5D0FD720749BD72B573C0310D704D704D600D7207B0F0BDD0190020B0110020941100201C1A002070B505460E46084602F0BEFD0B
:405A80000446304602F0D4FD0121A9400A46224001400A4301D0012070BD002070BD10B50446084602F0C4FD0121A140014201D0012010BD002010BD10B5FEF72DFE03289A
:405AC00004D102F0C9F80120FEF756FE10BDFEB51C4616460F46054601F04AFFA878FFF711FE02460190334639460094284600F00DF8002808D1A8780199FFF72BFDFF2CAB
:405B000002D138460CF024FFFEBD0000FFB585B005460E980C46FF2810D02B49C00009680A5840180179C0795278814201D9012601E09006860F6846038108E06078A17850
:405B40008006860FE0780002014368460181284601F0C4FC070007D021462846079A00F0BFFC384609B0F0BD304600F06DFD04AE0346039002AA29460096204600F0F9FBE1
:405B80003C20405D002818D0284601F0A7FC012813D0684600890096C0B20190A878231DFF22079902F058F968460089039BC2B2A878079902F09CFCD3E7684600890021F5
:405BC000C0B20091E9E70000AC110020F8B5002600253046FFF744FD07001DD090201149704340186030447F12E0601CFCF726FBCCB23846E040C007C00F07D0214630460C
:405C000001F0BAFF21463046FFF7C0FD6D1CEDB20548018AA942E8D8761C3606360ED7D0F8BD00001C1A0020081B002010B502F02DFA0020FFF7BEFE0CF020FF002010BDC0
:405C4000F8B5002400F0F0F80123012800D10124104F00203E4620360425082203E0002801D0002100E031460979002907D001290BD002290BD0114681402143CCB2401C55
:405C80000006000EEBD07C70F8BD1C43F7E72C43F5E700001C1A002010B5FFF7D1FF10BD10B5044604F076FC002802D1601C00F001F810BD1CB500240094062269460194A7
:405CC000FCF7D8FB002800D1122420461CBD0000F8B5044600201E4617460D46002C12D0002D10D0022E0ED0032E0CD0002F0AD02179092907D0002905D013494A7F5A21C5
:405D0000095D8A4207D82089002104F05CF928460CF01EFEFF20E18F012905D1002F03D0012E06D0002E04D0374301D10121E187F8BD0021E187069A2A70069A120A6A703D
:405D4000AF70E970F8BD0000D019002010B5FBF7B8FF0446FEF7E0FC012809D0FEF7DCFC022805D0FCF7C2F92046FBF7AEFFEEE72046FBF7AAFF10BD10B50B4681791943D4
:405D8000817103D08078114602F080FB10BD10B582798A43827102D1807802F08BFB10BD30B50C4C0220A28A0B4B9978002901D0022906D11D785B78EB18282B01D903205C
:405DC00002E0032900D101205105490DC0020143A18230BDC0112E406411002000B500F029F8002807D0012805D0032801D0042801D0002000BD012000BD014600B500207A
:405E0000C90701D000F010F800BD014600B50020C90701D000F008F800BD000001480068704700005C11002001480088000A704720102E400448008B410501D504207047AF
:405E40004007800F7047000000102E4001484068704700005C1100207CB50446002568460570200610D5FFF7E5FF01280CD101A801F0F8FE6846007900F036FB012001F04A
:405E8000DFFD0220FFF708FF600712D50C48017901290ED10571684601F0E4FE6846007800F056FB0220FFF7F7FE00212620FFF7EBFA044800680169204688477CBD000089
:405EC000681100209411002010B501460A4A007800241070FFF7A8FF0128084603D002F0F7F9204610BD00F0E7F80400F9D1034801210170F5E7000064110020DC1A0020CA
:405F000070B50446FFF790FF002801D00C2070BDA27B01211F48002A827801D00A4301E05208520082706279012A14D0C17849084900C170184D286801682046884720799A
:405F400001280CD06188208803F04CF82080207904280FD015E0C2780A43C270EAE72868C168E01D8847E01D02F032FA0B48008D208006E02868C168E01D8847E01D02F017
:405F800027FA074920798870204602F0AFF9002070BD00001C1A002094110020D01900206411002008B50178FFF73EFF814201D10C2008BD002914D0072069460870FFF799
:405FC0000DFF012807D10121684600F0E5F8012801D0092008BDFFF7E3FE02F0BBF9012011E0FFF7FBFE012806D1684601F03AFE6846007800F0ACFA02F0A2F9FFF714FF68
:406000000028FBD10220FFF747FE002008BD000010B501460A4A007800245070FFF704FF0128084603D002F011FA204610BD00F065F80400F9D1034801214170F5E70000E6
:4060400064110020DC1A002038B568460CF016FC002801D01F2038BD01210098C90201804180002505714571857107214173857302F03CF9009C202200212046FCF712FA32
:4060800025702A460021601CFCF70CFA204602F01FF9204602F0DAF900980CF059FC062200210448FCF7FEF902480C388560002038BD000068110020F8B5044600250D48B0
:4060C00000950078012806D068460CF0D7FB002803D007250CE00C250AE0074E009830602278611C401CFCF7D4F93168207808702846F8BDDC1A00205C110020F8B50446D4
:4061000000250D4800954078012806D068460CF0B5FB002803D007250CE00C250AE0074E009870602278611C401CFCF7B2F97168207808702846F8BDDC1A00205C11002094
:406140000346084800B5834209D8184600F01AFE002804D00089984201D1012000BD002000BD0000FF0E0000074A9179491C8906890E917138220A4092014907090E1143F2
:4061800008430249084070471C1A0020FF0E0000C006C00E70470000F8B507460E4600240D4803E0002C01D0002500E005462979002905D0641C2406240EF3D00020F8BD91
:4061C0000021204601F02AF92E712046FFF7CCFF28813C700120F8BD3C1A002010B503F0B5F90222002100F003F801F0FBFE10BD10B5094B40074907000F090F185A595A54
:4062000040185043C0086421FCF718F8002800D1012080B210BD0000D0580100F7B53D20405C88B015460C46002802D02878042802D200200BB0F0BD694608720026204680
:40624000FFF75AFA012800D00126204603A938300191009023460327A17E34333246206A03F098F902A8089900900B46019120463A4603A9243003F015F902466846007A64
:406280002870204601F0B6F81046D3E7FFB587B00C4605461078694608723D20005D1746002826D000262046FFF726FA012800D00126204603A93830019100902346A17EDD
:4062C00034333246206A03F065F902A80090291D019120462B1D03A924300A9A03F0E2F802006846007A388002D1204601F082F810460BB0F0BDF0B505463C20405C89B04E
:4063000016460C4600280CD0307869460873002806D000272046FFF7EFF9012803D003E01F2009B0F0BD012703200890204604A93830019100902346E17E34333A46E06974
:4063400003F028F96846007B03A928180290009120462B46019504A92430089A03F0D6F802466846007B3070204601F04DF81046D7E7FFB505463C20405C89B016460C4661
:40638000002810D0084601F0A9F801280BD0308869468883002809D000272046FFF7ACF9012805D005E000200DB0F0BD0220FBE70127204603A93830019100902346E17E59
:4063C00034333A46E06903F0E5F8291D2B1D07A8129A6D4607C5204603A924300C9A03F095F802466846808B3080204601F00CF81046D9E770B50D460446FFF77DF9012830
:406400000AD0E87AA97A00020143A07801F0E6FC012808D0002070BD00222421204602F027FD242070BD28214C200155204600F0B1FB282070BD0000002801D0002000E0AF
:4064400003484030C07F012800D00020704700003C1A00200146002049070ED50021084B03E0002901D0002200E01A461279022A04D0491C0906090EF3D070470120704727
:406480003C1A00200146002049070ED50021084B03E0002901D0002200E01A461279022A04D0491C0906090EF3D07047012070473C1A002010B5044680346068002803D0B5
:4064C0000CF05AFA0020606010BD4030417070474030817070474030017070470171704792001018C166704770B53C2501F0C0F9040004D020460021433001F023FCFF2223
:406500002946204600F0E8FB002C02D0A07801F031F970BD10B5002801D0002000E00348002802D0008903F095FD10BD3C1A002010B5002801D0002000E00448002804D0FB
:406540000179072901D100F047F810BD3C1A002010B501F08DF9002802D0807801F00AF910BD00207047000070B50546008A00281ED01049F122097B1140C90618D52946EB
:4065800040314A8A098A521C4A4392B2D10800D10121540801E0621A94B2A042FBD9FEF78BFE012804D1298AA878224601F0DCFC70BD0000D019002010B50023054C0B60E9
:4065C000248A944204D992001018C26E0A60C36610BD0000081B002038B5044600200090A079002814D14020015D052901D00E290ED168460CF052F9002809D120460099D7
:4066000002F014FC03481021428B2046FFF7B4FB38BD0000D019002010B50B4604460146184602F073F8002802D020460CF09AF910BD13B5044601AA11460620FDF78EFF2D
:406640006846818861811CBD002800D10220704770470000F8B504462346401D543300909A1EA078911E01F019FB25464035A88A298A8000FBF7E2FD401E81B2688A884264
:4066800003D96982A07801F085FF698A8C20015120460021433001F055FB27480088E88102F054FFE989891C8AB26179FFF7A0FD01F098FC02F04AFF2A8A6179FFF798FD1C
:4066C000074601F083FC688A002806D01B49088A032212021043088202E0002001F04EFF1648803801886E8A002E0CD0304648431349FBF78DFE0004000C01D0401C80B2B7
:406700001049488002E00F4800214180288A704381B2A07801F0A8FEFF2228374932B9B21346204602F062FCE98AA07801F01CFEA07801F049FAF8BD80102E40E0112E406D
:40674000710200006E1100207FB504468034616805460E46183108226846FBF79AFE31462031082202A8FBF794FE102168460CF02FF86068102108300CF02AF860682B4618
:40678000083024331022694602F0ACFE7FBD10B504460821FFF7FBFA10212046FFF7F7FA207905281FD006281DD008281AD12189002003F0C7FB072020712046FEF79CFFD8
:4067C000014620464030012913D00E21017000210176204600F0E0FF2046FFF76BFE2046FFF7C2FE10BD20890122002103F08EFBE1E70521EAE70000FFB581B01F46044698
:406800000821FFF7C4FA10212046FFF7C0FA2079082803D0092804D0042203E00422012501E009220025204600F044FE264600204036307022712046FFF73CFE0398002DE2
:4068400002D0012808D00BE001280AD120890022029903F05BFB04E02189029803F072FB012700203076012F04D0204600F094FF05B0F0BD02983073204602F025FB0546E2
:4068800005480121428B2046FFF776FA002DEFD109202071ECE70000D019002070B50C460546FEF729FF012809D108212846FFF76EFA0023012221462846FFF79DFF70BD9C
:4068C00010B5044600F0F6FD2046FFF7F3FD00214034217010BD70B505461A24FEF70CFF012809D108212846FFF751FA0023012221462846FFF780FF70BD0000F8B504462A
:40690000002000900E4668460BF0C8FF002801D00D20F8BD8420005908212030009D00F02CFA20460421383000F027FA002E02D1204600F0FBFD2946204602F002FA0E4873
:406940000821428B2046FFF717FA204600F095FF25464035002808D0204600F023F8002801D0092028700020F8BD08202870204600F0FEFFF7E70000D0190020014610B5E4
:4069800040310A460978082906D0092907D00A2901D100F091F810BD0B20107010BD00F001F810BD70B50446007925464035052805D0062803D008280FD00C2070BD0322B4
:4069C0000621204602F054FA0D480821428B2046FFF7D2F91120287010E006202873204602F072FA0646AA8A0A20424301212046FFF7C2F9002E01D109202071002070BDAB
:406A0000D019002038B504460020009068460BF045FF002801D00D2038BD2046009D00F0C3F908202071204600F080FD2946204602F0BEF900213D2001550F2040210855E4
:406A4000204600F095FF002038BD00B5024600F031FD10214032117000BD10B50446FEF74BFE012809D04020005D112805D100231A4606212046FFF7BFFE10BD10B5FFF7B5
:406A800086FE10BD38B504460021684600910BF005FF00280CD12046009902F00AFA05480821428B2046FFF767F90D204034207038BD0000D019002038B5044600216846C1
:406AC00000910BF0EBFE002801D00D2038BD2046009902F0E3F905480821428B2046FFF74BF90C2040342070002038BDD019002000787047F8B5002569460D70002801D0E2
:406B0000002400E01F4C002C18D0204600F0DBFC002813D0207903280BD005280CD026464036B18AA07801F0A9FCB078012806D01DE0042020711DE006202071F8BD0021C4
:406B4000204601F000FE274680373868002802D00BF012FF3D600020B0702079072802D12046FFF701FD0221204600F01BFF20790428E3D1207A694608703420FEF784FC8E
:406B8000F8BD00003C1A002010B54C22115400F052F810BD10B50446FF21FFF7F8F809202071A07801F090FC10BD000038B5FF216A461180002801D0002400E00B4C002C0C
:406BC00012D011460620FDF7C9FC684601882046FFF72FFD204600F087FC002804D104480068C1692046884738BD00003C1A0020B011002010B504468079002809D022213D
:406C00004C200155FF212046FFF7C1F8204600F012F810BD10B5037902464032002B03D01173092B02D003E0002100E02221117300F001F810BDFEB504460089002700900F
:406C40002781207926464036002817D0012815D002280AD112E002AA01A9204601F044FD002807D101980BF07DFE204601F064FD0028F0D02046FEF78FFCB776254680350D
:406C80002868002802D00BF077FE2F606868002802D00BF071FE6F60317B002919D0009800F064F8A078002100F0AAFF2046FFF795FAA07801F07CF8A07800F05BFDFF21EC
:406CC0002046FFF764F80B20FEF7E6FF00F068FCFEBD1F213173E2E7F8B517460E46054602F030FC04003CD020460C3001F01AF82046062200211830FBF7D4FB2046062259
:406D000000211230FBF7CEFB1648224600683946436A28469847074626702846FEF7ECFC012148406070002D10D02889608028464030C1782171002E0FD169796171018A52
:406D4000E180418A2181808A608106E00648008BC005C00F2071002060803946204603F074F8F8BD9411002000102E400A4610B50146002003F086F910BD10B50BF004FBC0
:406D800010BD000000B50146FFF702FA002801D0002000E00348002802D002898A4200D0002000BD3C1A002038B5044680346068002806D168460BF081FD002801D10098F5
:406DC0006060606838BD000010B5014600F086FB0128887802D0FEF799FC10BD90214843024940186030007F10BD00001C1A002070B5054604464035A87F012811D1A178BC
:406E00009020084A484380186030067F3046FEF731FE002805D10220A877A078314601F071F870BD1C1A002010B50C4CA07A002813D0FEF7CBFE0A48027F417F408B00F085
:406E4000B7FB012809D10020A07200F021FF05498989090B01D000F03BFA10BDEC1A00201C1A0020A0102E4070477047490510B5490F0B00FCF708FD060704080C0C0F0727
:406E80003E21FFF781FE10BD0821FFF7C3FE10BDFFF7D1FE10BDFFF7ADFE10BDF8B507460025002D01D0002600E0204E00F0BEFE3046403044890021418100F0C1FE30468C
:406EC00000F001FB01282BD1A00702D52846FFF711FEE00602D52846FFF768FEA00601D5FEF774FE600601D500F014FB200602D5284600F01DF8600702D5284600F02CFAB9
:406F0000380402D52846FFF713FB780402D52846FFF700FBE00703D021463046FFF7A6FF6D1C2D062D0EBCD0F8BD00003C1A0020F8B5002801D0002400E0284C002C4BD0D5
:406F400025464035A878012846D1FF278820493700593E46002805D02149097B890601D5878AC68A2046FEF7C7FB012834D002F0EDFA2A8A6179FFF73BF9009001F026F87B
:406F800000983346283081B23A46204602F02EF8E98AA07801F0E8F912480188688A124E002810D048431149FBF732FA0004000C01D0401C80B27080A07DC107C90F00205E
:406FC00001F0AEFA01E000207080288A698A484381B2A07801F048FAF8BD00003C1A0020D019002060112E406E110020710200000149096809680847B011002070B50D4660
:407000000026194A0146002801D0002401E014462034002C26D0204600F060FA01280AD19020484380186030007FFEF723FD002801D101F0C9FE0D48006881692046884779
:4070400000280CD020464030817EA94202D3491B817600E086762089294602F0B4FF204600F086FC70BD00001C1A0020B011002070B503460088FFF785FE040013D000F001
:4070800022FA00280FD02079092819D02546997840352973204601F017FF0646A878012803D0AA8A02E0022070BDEA880A20424301212046FEF760FE002E01D1092020717D
:4070C000002070BD0EB5002217216B460292198100905A810120029B00990BF0EDFC0EBDF8B518480024807A002822D1164E0025B089000B22E0204600F034FE1249A03905
:40710000401807882A462146384600F051FA012810D00E480122478305770A4944778A72002D01D0002000E02030002801D000F01FFCF8BDB089000B641CE4B20028DAD1D2
:40714000F8BD0000EC1A0020A0102E401C1A002010B50088FFF716FE002809D0014640310C460978082905D00B2903D00C2010BD022010BDFFF716FC002801D0092020702E
:40718000002010BD70B503460088FFF7FBFD040008D0254640352878082805D00B2803D00C2070BD022070BD8420005910220830991CFBF76EF92046FFF7C6FA287808288E
:4071C00004D02046FFF778FC002801D00A202870204600F0CDFB002070BD000010B50C46002121700088FFF7CDFD03000BD000F06AF9002807D00948F121007B0840C00698
:4072000003D4112010BD022010BD022020701A8A1889002102F052FF002010BDD0190020F8B50F46002100910088FFF7ABFD040012D000F048F900280ED0E079410641D48D
